{
  "_format": "hh-sol-artifact-1",
  "contractName": "SupplyChain",
  "sourceName": "contracts/SupplyChain.sol",
  "abi": [
    {
      "inputs": [],
      "stateMutability": "nonpayable",
      "type": "constructor"
    },
    {
      "anonymous": false,
      "inputs": [
        {
          "indexed": true,
          "internalType": "uint256",
          "name": "productId",
          "type": "uint256"
        },
        {
          "indexed": false,
          "internalType": "address",
          "name": "from",
          "type": "address"
        },
        {
          "indexed": false,
          "internalType": "address",
          "name": "to",
          "type": "address"
        }
      ],
      "name": "OwnershipTransferred",
      "type": "event"
    },
    {
      "anonymous": false,
      "inputs": [
        {
          "indexed": false,
          "internalType": "address",
          "name": "participant",
          "type": "address"
        }
      ],
      "name": "ParticipantAuthorized",
      "type": "event"
    },
    {
      "anonymous": false,
      "inputs": [
        {
          "indexed": false,
          "internalType": "address",
          "name": "participant",
          "type": "address"
        }
      ],
      "name": "ParticipantRevoked",
      "type": "event"
    },
    {
      "anonymous": false,
      "inputs": [
        {
          "indexed": true,
          "internalType": "uint256",
          "name": "productId",
          "type": "uint256"
        },
        {
          "indexed": false,
          "internalType": "string",
          "name": "name",
          "type": "string"
        },
        {
          "indexed": false,
          "internalType": "string",
          "name": "manufacturer",
          "type": "string"
        },
        {
          "indexed": false,
          "internalType": "address",
          "name": "registeredBy",
          "type": "address"
        }
      ],
      "name": "ProductRegistered",
      "type": "event"
    },
    {
      "anonymous": false,
      "inputs": [
        {
          "indexed": true,
          "internalType": "uint256",
          "name": "productId",
          "type": "uint256"
        },
        {
          "indexed": false,
          "internalType": "enum SupplyChain.Status",
          "name": "newStatus",
          "type": "uint8"
        },
        {
          "indexed": false,
          "internalType": "string",
          "name": "location",
          "type": "string"
        },
        {
          "indexed": false,
          "internalType": "address",
          "name": "updatedBy",
          "type": "address"
        }
      ],
      "name": "StatusUpdated",
      "type": "event"
    },
    {
      "inputs": [
        {
          "internalType": "address",
          "name": "_participant",
          "type": "address"
        }
      ],
      "name": "authorizeParticipant",
      "outputs": [],
      "stateMutability": "nonpayable",
      "type": "function"
    },
    {
      "inputs": [
        {
          "internalType": "address",
          "name": "",
          "type": "address"
        }
      ],
      "name": "authorizedParticipants",
      "outputs": [
        {
          "internalType": "bool",
          "name": "",
          "type": "bool"
        }
      ],
      "stateMutability": "view",
      "type": "function"
    },
    {
      "inputs": [
        {
          "internalType": "uint256",
          "name": "_productId",
          "type": "uint256"
        }
      ],
      "name": "getProduct",
      "outputs": [
        {
          "internalType": "uint256",
          "name": "id",
          "type": "uint256"
        },
        {
          "internalType": "string",
          "name": "name",
          "type": "string"
        },
        {
          "internalType": "string",
          "name": "manufacturer",
          "type": "string"
        },
        {
          "internalType": "enum SupplyChain.Status",
          "name": "status",
          "type": "uint8"
        },
        {
          "internalType": "address",
          "name": "currentOwner",
          "type": "address"
        },
        {
          "internalType": "uint256",
          "name": "timestamp",
          "type": "uint256"
        },
        {
          "internalType": "string",
          "name": "location",
          "type": "string"
        }
      ],
      "stateMutability": "view",
      "type": "function"
    },
    {
      "inputs": [
        {
          "internalType": "uint256",
          "name": "_productId",
          "type": "uint256"
        }
      ],
      "name": "getStatusHistory",
      "outputs": [
        {
          "components": [
            {
              "internalType": "enum SupplyChain.Status",
              "name": "status",
              "type": "uint8"
            },
            {
              "internalType": "uint256",
              "name": "timestamp",
              "type": "uint256"
            },
            {
              "internalType": "address",
              "name": "updatedBy",
              "type": "address"
            },
            {
              "internalType": "string",
              "name": "location",
              "type": "string"
            }
          ],
          "internalType": "struct SupplyChain.StatusUpdate[]",
          "name": "",
          "type": "tuple[]"
        }
      ],
      "stateMutability": "view",
      "type": "function"
    },
    {
      "inputs": [],
      "name": "getTotalProducts",
      "outputs": [
        {
          "internalType": "uint256",
          "name": "",
          "type": "uint256"
        }
      ],
      "stateMutability": "view",
      "type": "function"
    },
    {
      "inputs": [],
      "name": "owner",
      "outputs": [
        {
          "internalType": "address",
          "name": "",
          "type": "address"
        }
      ],
      "stateMutability": "view",
      "type": "function"
    },
    {
      "inputs": [
        {
          "internalType": "uint256",
          "name": "",
          "type": "uint256"
        }
      ],
      "name": "products",
      "outputs": [
        {
          "internalType": "uint256",
          "name": "id",
          "type": "uint256"
        },
        {
          "internalType": "string",
          "name": "name",
          "type": "string"
        },
        {
          "internalType": "string",
          "name": "manufacturer",
          "type": "string"
        },
        {
          "internalType": "enum SupplyChain.Status",
          "name": "status",
          "type": "uint8"
        },
        {
          "internalType": "address",
          "name": "currentOwner",
          "type": "address"
        },
        {
          "internalType": "uint256",
          "name": "timestamp",
          "type": "uint256"
        },
        {
          "internalType": "string",
          "name": "location",
          "type": "string"
        }
      ],
      "stateMutability": "view",
      "type": "function"
    },
    {
      "inputs": [
        {
          "internalType": "string",
          "name": "_name",
          "type": "string"
        },
        {
          "internalType": "string",
          "name": "_manufacturer",
          "type": "string"
        },
        {
          "internalType": "string",
          "name": "_location",
          "type": "string"
        }
      ],
      "name": "registerProduct",
      "outputs": [
        {
          "internalType": "uint256",
          "name": "",
          "type": "uint256"
        }
      ],
      "stateMutability": "nonpayable",
      "type": "function"
    },
    {
      "inputs": [
        {
          "internalType": "address",
          "name": "_participant",
          "type": "address"
        }
      ],
      "name": "revokeParticipant",
      "outputs": [],
      "stateMutability": "nonpayable",
      "type": "function"
    },
    {
      "inputs": [
        {
          "internalType": "uint256",
          "name": "",
          "type": "uint256"
        },
        {
          "internalType": "uint256",
          "name": "",
          "type": "uint256"
        }
      ],
      "name": "statusHistory",
      "outputs": [
        {
          "internalType": "enum SupplyChain.Status",
          "name": "status",
          "type": "uint8"
        },
        {
          "internalType": "uint256",
          "name": "timestamp",
          "type": "uint256"
        },
        {
          "internalType": "address",
          "name": "updatedBy",
          "type": "address"
        },
        {
          "internalType": "string",
          "name": "location",
          "type": "string"
        }
      ],
      "stateMutability": "view",
      "type": "function"
    },
    {
      "inputs": [
        {
          "internalType": "uint256",
          "name": "_productId",
          "type": "uint256"
        },
        {
          "internalType": "address",
          "name": "_newOwner",
          "type": "address"
        }
      ],
      "name": "transferOwnership",
      "outputs": [],
      "stateMutability": "nonpayable",
      "type": "function"
    },
    {
      "inputs": [
        {
          "internalType": "uint256",
          "name": "_productId",
          "type": "uint256"
        },
        {
          "internalType": "enum SupplyChain.Status",
          "name": "_newStatus",
          "type": "uint8"
        },
        {
          "internalType": "string",
          "name": "_location",
          "type": "string"
        }
      ],
      "name": "updateStatus",
      "outputs": [],
      "stateMutability": "nonpayable",
      "type": "function"
    }
  ],
  "bytecode": "0x608060405234801561001057600080fd5b5033600460006101000a81548173ffffffffffffffffffffffffffffffffffffffff021916908373ffffffffffffffffffffffffffffffffffffffff1602179055506001600360003373ffffffffffffffffffffffffffffffffffffffff1673ffffffffffffffffffffffffffffffffffffffff16815260200190815260200160002060006101000a81548160ff02191690831515021790555060008081905550612598806100c06000396000f3fe608060405234801561001057600080fd5b50600436106100b45760003560e01c80637acc0b20116100715780637acc0b201461018b5780638d28230b146101c15780638da5cb5b146101f1578063a6ec12151461020f578063b9db15b414610242578063c5f8d58414610278576100b4565b806329507f73146100b95780633406b718146100d5578063570aea8a1461010557806357f8f2f31461012357806358a20b3b1461013f578063781f0b721461016f575b600080fd5b6100d360048036038101906100ce91906117dc565b610294565b005b6100ef60048036038101906100ea9190611962565b6104fd565b6040516100fc9190611a18565b60405180910390f35b61010d6108ac565b60405161011a9190611a18565b60405180910390f35b61013d60048036038101906101389190611a33565b6108b5565b005b61015960048036038101906101549190611a60565b6109d7565b6040516101669190611cc6565b60405180910390f35b61018960048036038101906101849190611d0d565b610bc9565b005b6101a560048036038101906101a09190611a60565b610f3b565b6040516101b89796959493929190611de4565b60405180910390f35b6101db60048036038101906101d69190611a33565b611142565b6040516101e89190611e83565b60405180910390f35b6101f9611162565b6040516102069190611e9e565b60405180910390f35b61022960048036038101906102249190611eb9565b611188565b6040516102399493929190611ef9565b60405180910390f35b61025c60048036038101906102579190611a60565b61128a565b60405161026f9796959493929190611de4565b60405180910390f35b610292600480360381019061028d9190611a33565b6115a3565b005b600360003373ffffffffffffffffffffffffffffffffffffffff1673ffffffffffffffffffffffffffffffffffffffff16815260200190815260200160002060009054906101000a900460ff16806103395750600460009054906101000a900473ffffffffffffffffffffffffffffffffffffffff1673ffffffffffffffffffffffffffffffffffffffff163373ffffffffffffffffffffffffffffffffffffffff16145b610378576040517f08c379a000000000000000000000000000000000000000000000000000000000815260040161036f90611f91565b60405180910390fd5b8160008111801561038b57506000548111155b6103ca576040517f08c379a00000000000000000000000000000000000000000000000000000000081526004016103c190611ffd565b60405180910390fd5b600073ffffffffffffffffffffffffffffffffffffffff168273ffffffffffffffffffffffffffffffffffffffff1603610439576040517f08c379a000000000000000000000000000000000000000000000000000000000815260040161043090612069565b60405180910390fd5b600060016000858152602001908152602001600020905060008160030160019054906101000a900473ffffffffffffffffffffffffffffffffffffffff169050838260030160016101000a81548173ffffffffffffffffffffffffffffffffffffffff021916908373ffffffffffffffffffffffffffffffffffffffff160217905550847f16b85f49bf01212961345d3016c9a531894accf62eb7680f2045d79185cc0ec082866040516104ee929190612089565b60405180910390a25050505050565b6000600360003373ffffffffffffffffffffffffffffffffffffffff1673ffffffffffffffffffffffffffffffffffffffff16815260200190815260200160002060009054906101000a900460ff16806105a45750600460009054906101000a900473ffffffffffffffffffffffffffffffffffffffff1673ffffffffffffffffffffffffffffffffffffffff163373ffffffffffffffffffffffffffffffffffffffff16145b6105e3576040517f08c379a00000000000000000000000000000000000000000000000000000000081526004016105da90611f91565b60405180910390fd5b6000808154809291906105f5906120e1565b919050555060006040518060e0016040528060005481526020018681526020018581526020016000600481111561062f5761062e611ab9565b5b81526020013373ffffffffffffffffffffffffffffffffffffffff1681526020014281526020018481525090508060016000805481526020019081526020016000206000820151816000015560208201518160010190816106909190612335565b5060408201518160020190816106a69190612335565b5060608201518160030160006101000a81548160ff021916908360048111156106d2576106d1611ab9565b5b021790555060808201518160030160016101000a81548173ffffffffffffffffffffffffffffffffffffffff021916908373ffffffffffffffffffffffffffffffffffffffff16021790555060a0820151816004015560c082015181600501908161073d9190612335565b50905050600260008054815260200190815260200160002060405180608001604052806000600481111561077457610773611ab9565b5b81526020014281526020013373ffffffffffffffffffffffffffffffffffffffff16815260200185815250908060018154018082558091505060019003906000526020600020906004020160009091909190915060008201518160000160006101000a81548160ff021916908360048111156107f3576107f2611ab9565b5b02179055506020820151816001015560408201518160020160006101000a81548173ffffffffffffffffffffffffffffffffffffffff021916908373ffffffffffffffffffffffffffffffffffffffff160217905550606082015181600301908161085e9190612335565b5050506000547f9c6f3080993917af3ab38b7e74759890e4a9907d04850fcd47b5ba128e790ac086863360405161089793929190612407565b60405180910390a26000549150509392505050565b60008054905090565b600460009054906101000a900473ffffffffffffffffffffffffffffffffffffffff1673ffffffffffffffffffffffffffffffffffffffff163373ffffffffffffffffffffffffffffffffffffffff1614610945576040517f08c379a000000000000000000000000000000000000000000000000000000000815260040161093c90612498565b60405180910390fd5b6000600360008373ffffffffffffffffffffffffffffffffffffffff1673ffffffffffffffffffffffffffffffffffffffff16815260200190815260200160002060006101000a81548160ff0219169083151502179055507f99c7a377fb8b2cd15a2586422dad7509ca6265deb92786584730e6c0b1025146816040516109cc9190611e9e565b60405180910390a150565b6060816000811180156109ec57506000548111155b610a2b576040517f08c379a0000000000000000000000000000000000000000000000000000000008152600401610a2290611ffd565b60405180910390fd5b60026000848152602001908152602001600020805480602002602001604051908101604052809291908181526020016000905b82821015610bbd57838290600052602060002090600402016040518060800160405290816000820160009054906101000a900460ff166004811115610aa657610aa5611ab9565b5b6004811115610ab857610ab7611ab9565b5b8152602001600182015481526020016002820160009054906101000a900473ffffffffffffffffffffffffffffffffffffffff1673ffffffffffffffffffffffffffffffffffffffff1673ffffffffffffffffffffffffffffffffffffffff168152602001600382018054610b2c90612158565b80601f0160208091040260200160405190810160405280929190818152602001828054610b5890612158565b8015610ba55780601f10610b7a57610100808354040283529160200191610ba5565b820191906000526020600020905b815481529060010190602001808311610b8857829003601f168201915b50505050508152505081526020019060010190610a5e565b50505050915050919050565b600360003373ffffffffffffffffffffffffffffffffffffffff1673ffffffffffffffffffffffffffffffffffffffff16815260200190815260200160002060009054906101000a900460ff1680610c6e5750600460009054906101000a900473ffffffffffffffffffffffffffffffffffffffff1673ffffffffffffffffffffffffffffffffffffffff163373ffffffffffffffffffffffffffffffffffffffff16145b610cad576040517f08c379a0000000000000000000000000000000000000000000000000000000008152600401610ca490611f91565b60405180910390fd5b82600081118015610cc057506000548111155b610cff576040517f08c379a0000000000000000000000000000000000000000000000000000000008152600401610cf690611ffd565b60405180910390fd5b60006001600086815260200190815260200160002090508060030160009054906101000a900460ff166004811115610d3a57610d39611ab9565b5b60ff16846004811115610d5057610d4f611ab9565b5b60ff1611610d93576040517f08c379a0000000000000000000000000000000000000000000000000000000008152600401610d8a90612504565b60405180910390fd5b838160030160006101000a81548160ff02191690836004811115610dba57610db9611ab9565b5b021790555082816005019081610dd09190612335565b50428160040181905550600260008681526020019081526020016000206040518060800160405280866004811115610e0b57610e0a611ab9565b5b81526020014281526020013373ffffffffffffffffffffffffffffffffffffffff16815260200185815250908060018154018082558091505060019003906000526020600020906004020160009091909190915060008201518160000160006101000a81548160ff02191690836004811115610e8a57610e89611ab9565b5b02179055506020820151816001015560408201518160020160006101000a81548173ffffffffffffffffffffffffffffffffffffffff021916908373ffffffffffffffffffffffffffffffffffffffff1602179055506060820151816003019081610ef59190612335565b505050847fd35271a8825f8de958bbcf4ee452b8bc87633dadfc705cf61cb73c0153c55097858533604051610f2c93929190612524565b60405180910390a25050505050565b6001602052806000526040600020600091509050806000015490806001018054610f6490612158565b80601f0160208091040260200160405190810160405280929190818152602001828054610f9090612158565b8015610fdd5780601f10610fb257610100808354040283529160200191610fdd565b820191906000526020600020905b815481529060010190602001808311610fc057829003601f168201915b505050505090806002018054610ff290612158565b80601f016020809104026020016040519081016040528092919081815260200182805461101e90612158565b801561106b5780601f106110405761010080835404028352916020019161106b565b820191906000526020600020905b81548152906001019060200180831161104e57829003601f168201915b5050505050908060030160009054906101000a900460ff16908060030160019054906101000a900473ffffffffffffffffffffffffffffffffffffffff16908060040154908060050180546110bf90612158565b80601f01602080910402602001604051908101604052809291908181526020018280546110eb90612158565b80156111385780601f1061110d57610100808354040283529160200191611138565b820191906000526020600020905b81548152906001019060200180831161111b57829003601f168201915b5050505050905087565b60036020528060005260406000206000915054906101000a900460ff1681565b600460009054906101000a900473ffffffffffffffffffffffffffffffffffffffff1681565b600260205281600052604060002081815481106111a457600080fd5b9060005260206000209060040201600091509150508060000160009054906101000a900460ff16908060010154908060020160009054906101000a900473ffffffffffffffffffffffffffffffffffffffff169080600301805461120790612158565b80601f016020809104026020016040519081016040528092919081815260200182805461123390612158565b80156112805780601f1061125557610100808354040283529160200191611280565b820191906000526020600020905b81548152906001019060200180831161126357829003601f168201915b5050505050905084565b600060608060008060006060876000811180156112a957506000548111155b6112e8576040517f08c379a00000000000000000000000000000000000000000000000000000000081526004016112df90611ffd565b60405180910390fd5b6000600160008b81526020019081526020016000206040518060e00160405290816000820154815260200160018201805461132290612158565b80601f016020809104026020016040519081016040528092919081815260200182805461134e90612158565b801561139b5780601f106113705761010080835404028352916020019161139b565b820191906000526020600020905b81548152906001019060200180831161137e57829003601f168201915b505050505081526020016002820180546113b490612158565b80601f01602080910402602001604051908101604052809291908181526020018280546113e090612158565b801561142d5780601f106114025761010080835404028352916020019161142d565b820191906000526020600020905b81548152906001019060200180831161141057829003601f168201915b505050505081526020016003820160009054906101000a900460ff16600481111561145b5761145a611ab9565b5b600481111561146d5761146c611ab9565b5b81526020016003820160019054906101000a900473ffffffffffffffffffffffffffffffffffffffff1673ffffffffffffffffffffffffffffffffffffffff1673ffffffffffffffffffffffffffffffffffffffff168152602001600482015481526020016005820180546114e190612158565b80601f016020809104026020016040519081016040528092919081815260200182805461150d90612158565b801561155a5780601f1061152f5761010080835404028352916020019161155a565b820191906000526020600020905b81548152906001019060200180831161153d57829003601f168201915b5050505050815250509050806000015181602001518260400151836060015184608001518560a001518660c0015198509850985098509850985098505050919395979092949650565b600460009054906101000a900473ffffffffffffffffffffffffffffffffffffffff1673ffffffffffffffffffffffffffffffffffffffff163373ffffffffffffffffffffffffffffffffffffffff1614611633576040517f08c379a000000000000000000000000000000000000000000000000000000000815260040161162a90612498565b60405180910390fd5b600073ffffffffffffffffffffffffffffffffffffffff168173ffffffffffffffffffffffffffffffffffffffff16036116a2576040517f08c379a000000000000000000000000000000000000000000000000000000000815260040161169990612069565b60405180910390fd5b6001600360008373ffffffffffffffffffffffffffffffffffffffff1673ffffffffffffffffffffffffffffffffffffffff16815260200190815260200160002060006101000a81548160ff0219169083151502179055507f3cbcbb9ba5a54d0762f39fd455fd2900fbcfcd0e0693e2c87db13043c400b55f816040516117299190611e9e565b60405180910390a150565b6000604051905090565b600080fd5b600080fd5b6000819050919050565b61175b81611748565b811461176657600080fd5b50565b60008135905061177881611752565b92915050565b600073ffffffffffffffffffffffffffffffffffffffff82169050919050565b60006117a98261177e565b9050919050565b6117b98161179e565b81146117c457600080fd5b50565b6000813590506117d6816117b0565b92915050565b600080604083850312156117f3576117f261173e565b5b600061180185828601611769565b9250506020611812858286016117c7565b9150509250929050565b600080fd5b600080fd5b6000601f19601f8301169050919050565b7f4e487b7100000000000000000000000000000000000000000000000000000000600052604160045260246000fd5b61186f82611826565b810181811067ffffffffffffffff8211171561188e5761188d611837565b5b80604052505050565b60006118a1611734565b90506118ad8282611866565b919050565b600067ffffffffffffffff8211156118cd576118cc611837565b5b6118d682611826565b9050602081019050919050565b82818337600083830152505050565b6000611905611900846118b2565b611897565b90508281526020810184848401111561192157611920611821565b5b61192c8482856118e3565b509392505050565b600082601f8301126119495761194861181c565b5b81356119598482602086016118f2565b91505092915050565b60008060006060848603121561197b5761197a61173e565b5b600084013567ffffffffffffffff81111561199957611998611743565b5b6119a586828701611934565b935050602084013567ffffffffffffffff8111156119c6576119c5611743565b5b6119d286828701611934565b925050604084013567ffffffffffffffff8111156119f3576119f2611743565b5b6119ff86828701611934565b9150509250925092565b611a1281611748565b82525050565b6000602082019050611a2d6000830184611a09565b92915050565b600060208284031215611a4957611a4861173e565b5b6000611a57848285016117c7565b91505092915050565b600060208284031215611a7657611a7561173e565b5b6000611a8484828501611769565b91505092915050565b600081519050919050565b600082825260208201905092915050565b6000819050602082019050919050565b7f4e487b7100000000000000000000000000000000000000000000000000000000600052602160045260246000fd5b60058110611af957611af8611ab9565b5b50565b6000819050611b0a82611ae8565b919050565b6000611b1a82611afc565b9050919050565b611b2a81611b0f565b82525050565b611b3981611748565b82525050565b611b488161179e565b82525050565b600081519050919050565b600082825260208201905092915050565b60005b83811015611b88578082015181840152602081019050611b6d565b60008484015250505050565b6000611b9f82611b4e565b611ba98185611b59565b9350611bb9818560208601611b6a565b611bc281611826565b840191505092915050565b6000608083016000830151611be56000860182611b21565b506020830151611bf86020860182611b30565b506040830151611c0b6040860182611b3f565b5060608301518482036060860152611c238282611b94565b9150508091505092915050565b6000611c3c8383611bcd565b905092915050565b6000602082019050919050565b6000611c5c82611a8d565b611c668185611a98565b935083602082028501611c7885611aa9565b8060005b85811015611cb45784840389528151611c958582611c30565b9450611ca083611c44565b925060208a01995050600181019050611c7c565b50829750879550505050505092915050565b60006020820190508181036000830152611ce08184611c51565b905092915050565b60058110611cf557600080fd5b50565b600081359050611d0781611ce8565b92915050565b600080600060608486031215611d2657611d2561173e565b5b6000611d3486828701611769565b9350506020611d4586828701611cf8565b925050604084013567ffffffffffffffff811115611d6657611d65611743565b5b611d7286828701611934565b9150509250925092565b600082825260208201905092915050565b6000611d9882611b4e565b611da28185611d7c565b9350611db2818560208601611b6a565b611dbb81611826565b840191505092915050565b611dcf81611b0f565b82525050565b611dde8161179e565b82525050565b600060e082019050611df9600083018a611a09565b8181036020830152611e0b8189611d8d565b90508181036040830152611e1f8188611d8d565b9050611e2e6060830187611dc6565b611e3b6080830186611dd5565b611e4860a0830185611a09565b81810360c0830152611e5a8184611d8d565b905098975050505050505050565b60008115159050919050565b611e7d81611e68565b82525050565b6000602082019050611e986000830184611e74565b92915050565b6000602082019050611eb36000830184611dd5565b92915050565b60008060408385031215611ed057611ecf61173e565b5b6000611ede85828601611769565b9250506020611eef85828601611769565b9150509250929050565b6000608082019050611f0e6000830187611dc6565b611f1b6020830186611a09565b611f286040830185611dd5565b8181036060830152611f3a8184611d8d565b905095945050505050565b7f4e6f7420617574686f72697a6564000000000000000000000000000000000000600082015250565b6000611f7b600e83611d7c565b9150611f8682611f45565b602082019050919050565b60006020820190508181036000830152611faa81611f6e565b9050919050565b7f50726f6475637420646f6573206e6f7420657869737400000000000000000000600082015250565b6000611fe7601683611d7c565b9150611ff282611fb1565b602082019050919050565b6000602082019050818103600083015261201681611fda565b9050919050565b7f496e76616c696420616464726573730000000000000000000000000000000000600082015250565b6000612053600f83611d7c565b915061205e8261201d565b602082019050919050565b6000602082019050818103600083015261208281612046565b9050919050565b600060408201905061209e6000830185611dd5565b6120ab6020830184611dd5565b9392505050565b7f4e487b7100000000000000000000000000000000000000000000000000000000600052601160045260246000fd5b60006120ec82611748565b91507fffffffffffffffffffffffffffffffffffffffffffffffffffffffffffffffff820361211e5761211d6120b2565b5b600182019050919050565b7f4e487b7100000000000000000000000000000000000000000000000000000000600052602260045260246000fd5b6000600282049050600182168061217057607f821691505b60208210810361218357612182612129565b5b50919050565b60008190508160005260206000209050919050565b60006020601f8301049050919050565b600082821b905092915050565b6000600883026121eb7fffffffffffffffffffffffffffffffffffffffffffffffffffffffffffffffff826121ae565b6121f586836121ae565b95508019841693508086168417925050509392505050565b6000819050919050565b600061223261222d61222884611748565b61220d565b611748565b9050919050565b6000819050919050565b61224c83612217565b61226061225882612239565b8484546121bb565b825550505050565b600090565b612275612268565b612280818484612243565b505050565b5b818110156122a45761229960008261226d565b600181019050612286565b5050565b601f8211156122e9576122ba81612189565b6122c38461219e565b810160208510156122d2578190505b6122e66122de8561219e565b830182612285565b50505b505050565b600082821c905092915050565b600061230c600019846008026122ee565b1980831691505092915050565b600061232583836122fb565b9150826002028217905092915050565b61233e82611b4e565b67ffffffffffffffff81111561235757612356611837565b5b6123618254612158565b61236c8282856122a8565b600060209050601f83116001811461239f576000841561238d578287015190505b6123978582612319565b8655506123ff565b601f1984166123ad86612189565b60005b828110156123d5578489015182556001820191506020850194506020810190506123b0565b868310156123f257848901516123ee601f8916826122fb565b8355505b6001600288020188555050505b505050505050565b600060608201905081810360008301526124218186611d8d565b905081810360208301526124358185611d8d565b90506124446040830184611dd5565b949350505050565b7f4f6e6c79206f776e65722063616e2063616c6c20746869730000000000000000600082015250565b6000612482601883611d7c565b915061248d8261244c565b602082019050919050565b600060208201905081810360008301526124b181612475565b9050919050565b7f43616e206f6e6c79206d6f766520666f727761726420696e2073746174757300600082015250565b60006124ee601f83611d7c565b91506124f9826124b8565b602082019050919050565b6000602082019050818103600083015261251d816124e1565b9050919050565b60006060820190506125396000830186611dc6565b818103602083015261254b8185611d8d565b905061255a6040830184611dd5565b94935050505056fea264697066735822122036b54ea48106d0277f5f231bec2b4199dbeeafc25595d436945df5da8838b6af64736f6c63430008140033",
  "linkReferences": {},
  "deployedLinkReferences": {}
}